:1000000012C019C018C017C016C015C014C013C044
:1000100012C011C010C00FC00EC00DC00CC00BC06C
:100020000AC009C008C011241FBECFE5D4E0DEBF5E
:10003000CDBF31D006C3E4CF8FEF82BB12BA089593
:100040008FEF82BB000012BA08950F931F93DF93C6
:10005000CF930F92CDB7DEB71982998199819830ED
:10006000A0F4082F10E08981980102C035952795EA
:100070008A95E2F720FF02C0E3DF01C0DDDF89815E
:100080008F5F89838981883070F30F90CF91DF91E2
:100090001F910F9108958FEF81BB8FE19FEBA2E03D
:1000A00081509040A040E1F700C0000080E0CDDF2B
:1000B00080E0CBDF80E0C9DF80E0C7DF80E0C5DF24
:1000C00080E0C3DF80E0C1DF80E0BFDF80E0BDDF34
:1000D00080E0BBDF80E0B9DF80E0B7DF80E0B5DF44
:1000E00080E0B3DF80E0B1DF80E0AFDF80E0ADDF54
:1000F00080E0ABDF80E0A9DF80E0A7DF80E0A5DF64
:1001000087EF94E2A1E081509040A040E1F700C069
:10011000000080E09ADF80E098DF8FEF96DF80E0DC
:1001200094DF8FEA92DF8FEA90DF80E08EDF80E05D
:100130008CDF80E08ADF80E088DF80E086DF80E09F
:1001400084DF80E082DF80E080DF80E07EDF80E0AF
:100150007CDF80E07ADF80E078DF80E076DF80E0BF
:1001600074DF80E072DF8FE691E1A1E08150904082
:10017000A040E1F700C000008FEF67DF80E065DF9F
:100180008FEF63DF80E061DF80E05FDF8FEF5DDFB7
:1001900080E05BDF8FEA59DF8FEA57DF80E055DFD1
:1001A00080E053DF80E051DF80E04FDF80E04DDF13
:1001B00080E04BDF80E049DF80E047DF80E045DF23
:1001C00080E043DF80E041DF80E03FDF87EE9DEFAE
:1001D000A0E081509040A040E1F700C000008FEF08
:1001E00034DF80E032DF80E030DF8FEF2EDF80E031
:1001F0002CDF8FEF2ADF80E028DF80E026DF8FEF23
:1002000024DF80E022DF8FEA20DF8FEA1EDF80E03C
:100210001CDF80E01ADF80E018DF80E016DF80E07E
:1002200014DF80E012DF80E010DF80E00EDF80E08E
:100230000CDF8FE59AEEA0E081509040A040E1F7FE
:1002400000C000008FEF01DF8FEFFFDE80E0FDDEFA
:100250008FEFFBDE80E0F9DE80E0F7DE8FEFF5DE8A
:1002600080E0F3DE8FEFF1DE80E0EFDE80E0EDDEB8
:100270008FEFEBDE80E0E9DE8FEAE7DE8FEAE5DE96
:1002800080E0E3DE80E0E1DE80E0DFDE80E0DDDEF6
:1002900080E0DBDE80E0D9DE87ED96EDA0E08150E6
:1002A0009040A040E1F700C000008AE5CEDE8FEF6D
:1002B000CCDE80E0CADE8FEFC8DE8FEFC6DE80E0E6
:1002C000C4DE8FEFC2DE80E0C0DE80E0BEDE8FEFF6
:1002D000BCDE80E0BADE8FEFB8DE80E0B6DE80E024
:1002E000B4DE8FEFB2DE80E0B0DE8FEAAEDE8FEA02
:1002F000ACDE80E0AADE80E0A8DE80E0A6DE8FE54E
:100300009AEEA0E081509040A040E1F700C00000CC
:1003100080E09BDE8FEF99DE80E097DE8AE595DE58
:100320008FEF93DE80E091DE8FEF8FDE8FEF8DDE3B
:1003300080E08BDE8FEF89DE80E087DE80E085DE87
:100340008FEF83DE80E081DE8FEF7FDE80E07DDE79
:1003500080E07BDE8FEF79DE80E077DE8FEA75DE8E
:100360008FEA73DE8FE798E3A1E081509040A040D0
:10037000E1F700C0000080E068DE80E066DE80E03B
:1003800064DE8AE562DE8FEF60DE80E05EDE8FEFA6
:100390005CDE8FEF5ADE80E058DE8FEF56DE80E0C5
:1003A00054DE80E052DE8FEF50DE80E04EDE8FEFD5
:1003B0004CDE80E04ADE80E048DE8FEF46DE80E003
:1003C00044DE8FEA42DE8FEA40DE8FE59AEEA0E05F
:1003D00081509040A040E1F700C0000080E035DE91
:1003E00080E033DE80E031DE80E02FDE80E02DDE55
:1003F00080E02BDE8FEF29DE8FEF27DE80E025DE29
:100400008FEF23DE80E021DE80E01FDE8FEF1DDE38
:1004100080E01BDE8FEF19DE80E017DE80E015DE66
:100420008FEF13DE80E011DE8FEA0FDE8FEA0DDE44
:100430008FE59AEEA0E081509040A040E1F700C027
:10044000000080E002DE80E000DE80E0FEDD80E093
:10045000FCDD80E0FADD80E0F8DD80E0F6DD80E0C4
:10046000F4DD80E0F2DD8FEFF0DD80E0EEDD80E0B6
:10047000ECDD8FEFEADD80E0E8DD8FEFE6DD80E0A8
:10048000E4DD80E0E2DD8FEFE0DD80E0DEDD8FEABD
:10049000DCDD8FEADADD8FE59AEEA0E08150904056
:1004A000A040E1F700C0000080E0CFDD80E0CDDDBE
:1004B00080E0CBDD80E0C9DD80E0C7DD80E0C5DD28
:1004C00080E0C3DD80E0C1DD80E0BFDD80E0BDDD38
:1004D00080E0BBDD80E0B9DD8FEFB7DD80E0B5DD2A
:1004E0008FEFB3DD80E0B1DD80E0AFDD8FEFADDD1C
:1004F00080E0ABDD8FEAA9DD8FEAA7DD8FE59AEE1C
:10050000A0E081509040A040E1F700C0000080E0F2
:100510009CDD80E09ADD80E098DD80E096DD80E083
:1005200094DD80E092DD80E090DD80E08EDD80E093
:100530008CDD80E08ADD80E088DD80E086DD80E0A3
:1005400084DD80E082DD80E080DD80E07EDD80E0B3
:100550007CDD8FEF7ADD80E078DD8FEA76DD8FEA73
:1005600074DD8FE59AEEA0E081509040A040E1F765
:1005700000C0000080E069DD80E067DD80E065DDCF
:1005800080E063DD80E061DD80E05FDD80E05DDDF7
:1005900080E05BDD80E059DD80E057DD80E055DD07
:1005A00080E053DD80E051DD80E04FDD80E04DDD17
:1005B00080E04BDD80E049DD80E047DD80E045DD27
:1005C0008FEA43DD8FEA41DD8FE59AEEA0E08150AE
:1005D0009040A040E1F700C0000080E036DD80E000
:1005E00034DD80E032DD80E030DD80E02EDD80E053
:1005F0002CDD80E02ADD80E028DD80E026DD80E063
:1006000024DD80E022DD80E020DD80E01EDD80E072
:100610001CDD80E01ADD80E018DD80E016DD80E082
:1006200014DD80E012DD80E010DD80E00EDD8FE57E
:100630009AEEA0E081509040A040E1F700C0000099
:060640002CCDF894FFCF61
:00000001FF
