:100000000C942A000C943F000C943F000C943F0089
:100010000C943F000C943F000C943F000C943F0064
:100020000C943F000C943F000C943F000C943F0054
:100030000C943F000C943F000C943F000C943F0044
:100040000C943F000C943F000C943F000C943F0034
:100050000C943F0011241FBECFE5D4E0DEBFCDBF1E
:1000600013E0A0E6B0E0E8E4F2E002C005900D92F3
:10007000A23DB107D9F70E941A010C9422010C94F9
:1000800000008FEF82BB12BA08958FEF82BB85E02C
:100090008A95F1F7000012BA08950F931F93DF932A
:1000A000CF930F92CDB7DEB7198282958F70082F4C
:1000B00010E098012A7A30703595279505751070F3
:1000C000000F111F022B10E0C80183739070880F7E
:1000D000991F880F991F0C7C107015950795159521
:1000E0000795082B0295898110E011C0898198013C
:1000F00002C0359527958A95E2F720FF03C00E943C
:10010000450002C00E94410089818F5F89838981F7
:10011000883060F30F90CF91DF911F910F91089578
:10012000CF92DF92EF92FF920F931F93CF93DF93C3
:1001300075E7E72E70E0F72E00E010E065E1C62ECF
:10014000D12C20C089810E944D0088810E944D00E1
:100150008A810E944D002396CE15DF0599F78FE71F
:100160009BE8A8E081509040A040E1F700C000006B
:100170000F5F1F4F55E1E52EF12CEC0EFD1E0830F0
:10018000110551F00C9DE0010D9DD00D1C9DD00D71
:100190001124C05ADF4FD6CFDF91CF911F910F911D
:1001A000FF90EF90DF90CF900895CF92DF92EF9283
:1001B000FF920F931F93CF93DF93ADE1EA2EA1E05F
:1001C000FA2E00E010E0F5E1CF2ED12C20C089817D
:1001D0000E944D0088810E944D008A810E944D003E
:1001E0002396CE15DF0599F78FEF90E7A2E08150B7
:1001F0009040A040E1F700C000000F5F1F4FE5E115
:10020000EE2EF12CEC0EFD1E0232110551F00C9D6C
:10021000E0010D9DD00D1C9DD00D1124C85FDE4F57
:10022000D6CFDF91CF911F910F91FF90EF90DF908C
:10023000CF9008958FEF81BBF8940E9490000E94A8
:08024000D500FBCFF894FFCFBD
:10024800FF000000000000000000000000000000A7
:100258000000000000000000FF5A0000000000003D
:100268000000000000000000000000000000000086
:10027800FFFF000000000000000000000000000078
:10028800000000000000000000FF00000000000067
:100298000000000000000000000000000000000056
:1002A80000FFFF0000000000000000000000000048
:1002B80000000000000000000000FF000000000037
:1002C8000000000000000000000000000000000026
:1002D800E600E6000000000000000000000000004A
:1002E8000000000000000000E600E600000000003A
:1002F80000000000000000000000000000000000F6
:10030800E600E60000000000000000000000000019
:100318000000000000000000E600E6000000000009
:1003280000000000000000000000000000000000C5
:10033800E600E600000000000000000000000000E9
:100348000000000000000000E600E60000000000D9
:100358000000000000000000000000000000000095
:10036800E600E600000000000000000000000000B9
:100378000000000000000000E600E60000FF0000AA
:1003880000000000000000000000000000E600E699
:100398000000000000FF0000000000000000000056
:1003A8000000E600E60000000000000000FF00007A
:1003B80000000000000000E600E600000000000069
:1003C8000000000000FF000000000000E600E6005A
:1003D80000000000000000000000000000FF000016
:1003E80000E600E600000000000000000000000039
:1003F8000000000000FFE600E600FFFF000000002C
:1004080000000000000000000000FFE600E6000019
:100418000000FFFF0000000000000000000000FFD7
:10042800E600E600000000000000FFFF00000000FA
:1004380000000000FFE600E60000000000000000E9
:100448000000FFFF0000000000FFE600E6000000DB
:1004580000000000000000000000FFFF0000FFE6B1
:1004680000E600FF0000000000000000000000FFA0
:10047800FF0000FFE600E600000000FF00000000AB
:1004880000000000FFFF0000FFE600E6000000009B
:10049800000000FF0000000000FFFF0000FFE60072
:1004A800E600000000000000000000FF0000FFFF61
:1004B8000000FFE600E6FFFF00000000000000006B
:1004C800FF0000FFFF0000FFE600E6000000FFFF5E
:1004D8000000000000FF0000FFFF0000FFE600E64C
:1004E800000000000000FFFF0000FF0000FFFF0009
:1004F80000FFE600E6FF5A00000000FFFF0000FFD3
:100508000000FFFF0000FFE600E6000000FF5A00C1
:10051800FFFF0000FF0000FFFF0000FFE600E6FF0E
:100528000000FF5A00FFFF0000FF0000FFFF00006F
:10053800FFE600E6000000FF0000FF5A00FFFF0092
:1005480000FF0000FFFF0000FF000000000000FFA8
:100558000000FF5A00FFFF0000FF0000FFFF00003F
:1005680000000000000000FF0000FF5A00FFFF002D
:1005780000FF00000000000000000000000000FF75
:100588000000FF5A00FFFF0000000000000000000C
:1005980000000000000000FF0000FF5A00000000FB
:1005A800000000000000000000000000000000FF44
:0205B800000041
:00000001FF
